:100000000C94B90D0C94E10D0C94E10D0C94E10DE0
:100010000C94E10D0C94E10D0C94E10D0C94E10DA8
:100020000C94E10D0C94E10D0C94DF1A0C944E1B12
:100030000C94E10D0C94E10D0C94E10D0C94E10D88
:100040000C94E10D0C94E10D0C94E10D0C94E10D78
:100050000C94E10D0C94E10D0C94E10D0C94801DB9
:100060000C94E10D0C94E10D0C94E10D0C94E10D58
:100070000C94E10D0C94E10D0C94E10D0C94E10D48
:100080000C94CA1D0C94E10D0C94E10D0C94E10D3F
:100090000C94E10D0C94E10D0C94E10D0C94E10D28
:1000A0000C94E10D0C94E10D0C94E10DB8017D0070
:1000B000DC007D000080DC03D400BA02D4007003B1
:1000C000D400DC03D4007003D400BA02D4002705A6
:1000D000D4000000D4002705D400DC03D40097042A
:1000E000D4002705D4009704D400DC039F0000004F
:1000F0003500DC03D4000000D40000800E0800FEB0
:10010000A6DAFADAA6FEFEFEFEFEFEFE0F0800FEEE
:10011000FEFEFEFEFEFEFEFEFEFEFEFE000000FCFB
:10012000FEFFFFFFFFFFFFFEFC00000000000000DD
:100130000000000000000098FDFFFFFFFFFFFFFD33
:10014000980000000000000000000000000203030F
:10015000030303030303030303030200000000007F
:10016000000000000018120000FC028181818181E2
:100170008102FC0000000000000000000000000000
:10018000009865AA41838341AA6598000000000099
:10019000000000000000000201000101000000005A
:1001A000010100010200000000000000000000004A
:1001B00000FC02E1B5D5D5B5E102FC00000000006D
:1001C0000000000000000000009865AA4182824102
:1001D000AA65980000000000000000000000000276
:1001E0000100010100000000010100010200000007
:1001F0000000000000000000000000060F1F3F3F4D
:100200003F3F3F7FFFFFFF7F3F1F1F0F06000000A4
:1002100000000000000000060F1F1F3F7FFFFFFFD0
:100220007F3F3F3F3F3F1F0F060000000000001CC4
:1002300008000000000609162F2F2F3F235DBFBFC7
:10024000BF5B271F16090600000000000000000029
:10025000000609161F275BBFBFBF5D233F2F2F2F4F
:100260001609060000000000002B2000000000001E
:10027000FF0100000000000000000000FCFFFFE0A4
:100280009F3F1F5FEFF783BF808080CF473B67FFB3
:10029000FFFFFFFFFFFF0000000000000000000064
:1002A00000000000000000030701030FFFFFFFFE36
:1002B000FEFE3EFEFEFE7E3FC7FCFFFFFFFFFFFF90
:1002C000FF0000000000000000000000000000002F
:1002D000000000000020381F9FDFCFE7F3F0F9FD9A
:1002E000FEFEFFFFFFFFFFFFFFFFFFFFE0E0E0F08C
:1002F000F0F0783C0C808080C0C0E0F0F8F8FCFCA6
:10030000FEFEFFFFFFFFFFFFFFFFFFFFFFFFFFFFFF
:10031000FFFFFFFFFFFFFF0000000000FF010000E4
:10032000000000000000000000FCFF00FEFFFFFFD7
:10033000FCF3FFFC00000FF0FFFFFFFFFFFFFFFFDC
:10034000FFFF0000000000000000000000000000AF
:10035000000000FFFF7FF8E7CFC7D7BBBDA0AFA06D
:10036000A0A0B3D1CE19FFFFFFFFFFFFFF000000E9
:10037000000000000000000000000000000000017C
:10038000000003FFFFFFFFFFFF0F7F7FBF9FCFF145
:10039000FFFFFFFFFFFFFFFFE0E0E0F0F0F0783C41
:1003A0000C808080C0C0E0F0F8FCCEC1C8EEE7E76A
:1003B000F7F3F9FCFCFEFFFFFFFFFFFFFFFFFFFF6E
:1003C000FFFFFF4728FFFFFFFFFFFFFFFF0000FCCD
:1003D0000000FFFFFFFFFFFFFF0000FC0000FF3FEA
:1003E0000F83631189C8E4F4F4F4E4C889116383CA
:1003F0000F1FFC0000F83061C78F1F3F7FFF000018
:10040000FC0000FCFFFFFFFFFFFFFFFFFFFFFFFF00
:10041000FFFFFFFF0000FF80809F9F9F9F1F1FFF28
:100420000000FF0000FFF0C0871820234F4F9F9F60
:100430009F4F4F43201887C0F0FF0000FF0000F0DF
:10044000E1C3860C183060FF0000FFFFFFFFFFFFD5
:10045000FFFFFFF7F7F7F7F7171717141414141423
:10046000141414F4F4141714141414F4F7F7F717FD
:10047000171616163474F4F474341616171717F783
:10048000141414141414151717F71716141414143D
:1004900014143737F7F7F7F7F7F7FFFFFFFFFFFC05
:1004A000FCFC0000000000FCFCFC7F010000C0C060
:1004B0000000017FFFFF000000000080000000003E
:1004C000800000000000FF00000000000404FCFCAD
:1004D000FF00000000009F00000060F0FFFFFFFF32
:1004E000FFFFFFFFFFFFFFFFFF8080808080FFFF97
:1004F0008F80808080F9F9808080808FFF8080806D
:100500008080FF80808080FF8080808080FF80806E
:1005100080808083838383FF8080808080FFE08071
:100520008080C0E7FFFFFFFF010204081020408029
:10053000D5F08D14A1C881CFD9F1AF20000068FC9F
:10054000FEFEFFFFFFFFFEFEFC00C0E0F1FBFFFF31
:10055000FFFFFFFFFF010303030303030303030381
:10056000030C120068946AEAD1F5E1A1C202FC0012
:10057000C020110A959B8C807C03FE0102010200C1
:10058000000202020000030FFFFFFFFFFFFFFFFC5E
:10059000E0000000000000000000000000000FFF6D
:1005A000FFFFFFFFFFFFFEF08000000000000000E3
:1005B00000000000010F7FFFFFFFFFFFFFFFF8C0FB
:1005C000000000000000000000000000077FFFFFA7
:1005D000FFFFFFFFFFFEE000000000000000000042
:1005E000000000077FFFFFFFFFFFFFFFFFF8800015
:1005F00000000000000000000000073FFFFFFFFFB9
:10060000FFFFFFFFFC0000000000000000000000F2
:1006100000033FFFFFFFFFFFFFFF0000000000009F
:10062000000000000000000003FFFFFFFFFFFF15B8
:10063000400FF00014A8010CE31CE00000000000D3
:1006400000000000000000000FF00215000006711D
:100650008E70800000000000000000000000010E0D
:1006600070800A54A00738C738C00000000000009E
:100670000000000000000778800A5400031EE11EFD
:10068000E00000000000000000000000000778808B
:10069000000050811FF887788000000000000000F3
:1006A000000000000738C0012A50A00F0C03FC0016
:1006B0000000000000000000000000033CC0010A30
:1006C000000000FF0000000000000000000000002B
:1006D000000003FC00000000FF4B40FFFFFFFFFF96
:1006E000FFFFFFFFFFFF7F7F7F7F7F7F7F7F7F7F1A
:1006F0007F7F7F7F7F7F7F7F7F7F7F7F7F7F7F7F0A
:100700007F7F7F7F7F7F7F7F7F7F7F7F7F7F7F7FF9
:100710007F7F7F7F7F7F7F7F7F7F7FFFFFFFFFFF69
:10072000FFFFFFFFFFFFFFFFFFFFFFFFFFFFFFFFD9
:10073000FEFFFFFFFFFFFFFFABFEFFFFFFFFFFFF1F
:10074000FFBFEAFFFFFFFFFFFFFFFFAAFFFFFFFF63
:10075000FFFFFFFFEABFFFFFFFFFFFFFFFFEABFF53
:10076000FFFFFFFFFFFFFEFFFFFFFFFFFFFFFFFF9A
:10077000FFFFFFFFFFFFFFFF9FC7DFDFDFDFDFDFE1
:10078000DFDF4BDEDFDFDFDFDFDFDFDF4ADFDFDFA3
:10079000DFDFDFDFDFDF4ADFDFDFDFDFDFDFDFDFFE
:1007A0004ADFDFDFDFDFDFDFDFDE4BDFDFDFDFDF83
:1007B000DFDFDFC79FFFFFFFFFFFFFFFFFFFFFFF41
:1007C000FFFFFFFFFFFFFFFFFFFFFFFF55FFFFFFE3
:1007D000FFFFFFFFFFFF5FF5FFFFFFFFFFFFFFFFD3
:1007E000FF55FFFFFFFFFFFFFFFFFFF55FFFFFFF6D
:1007F000FFFFFFFFFFFF55FFFFFFFFFFFFFFFFFFB3
:10080000FFFFFFFFFFFFFFFFFFFFFF7FFFFFFFFF78
:10081000FFFFFFFFFFFF55FFFFFFFFFFFFFFFFFF92
:10082000FF55FFFFFFFFFFFFFFFFFFFF55FFFFFF2C
:10083000FFFFFFFFFFFFFF55FFFFFFFFFFFFFFFF72
:10084000FFFF55FFFFFFFFFFFFFFFFFFFF7FFFFFE2
:10085000FFFFFFFFFFF1FCFDFDFDFDFDFDFDFDFDCB
:10086000A9FDFDFDFDFDFDFDFDFDFDBDE9FDFDFD60
:10087000FDFDFDFDFDFDFDA9FDFDFDFDFDFDFDFDFC
:10088000FDFDE9BDFDFDFDFDFDFDFDFDFDFDA9FD40
:10089000FDFDFDFDFDFDFDFDFCF1FFFFFFFFFFFF89
:1008A000FFFFFFFFFFFFFFFFFFFFAAFFFFFFFFFFAD
:1008B000FFFFFFFFFFFFAAFFFFFFFFFFFFFFFFFF9D
:1008C000FFFFAAFFFFFFFFFFFFFFFFFFFFFFAAFFE2
:1008D000FFFFFFFFFFFFFFFFFFFFAAFFFFFFFFFF7D
:1008E000FFFFFFFFFFFFFFFFBF8FBFBFBFBFBFBF48
:1008F000BFBFBFBFAABFBFBFBFBFBFBFBFBFBFBF1D
:10090000BFAABFBFBFBFBFBFBFBFBFBFBFAABFBF21
:10091000BFBFBFBFBFBFBFBFBFAABFBFBFBFBFBFFC
:10092000BFBFBFBFBFBFAABFBFBFBFBFBFBFBFBFEC
:10093000BF8FBF1638C31D36CE76B675B3EF1FFF17
:10094000FFFFFFFFFFFFFFFFFFFFFFFFFFFEFCFDBD
:10095000FDFDFDFCFCFCFDFFFFFFFFFFFFFFFFFFB8
:10096000FFFFFFFFFFFFFFFF1F67FBDDBDBEDEDEFA
:100970003E3D9DB3A79F7FFFFFFFFFFFFFFFFAF103
:10098000E3E2E58558FEB76F6FB7B76F6FFFFFFF04
:10099000FFFFFFFFFFFFFFFFFFFEFCF8F8F9F9F88C
:1009A000F8F9F9FFFFFFFFFFFFFFFFFFFFFFFFFF6A
:1009B000FFFFFFFFFFFF3FDFEFFFFFFFFFFFFFFF37
:1009C000FFFFFFFFFFFFFFFFFFFFFFD08B1F16168C
:1009D00038FFFFFFFFFFFFFFFFFFFFFFFF1FEFB32A
:1009E00075B676CE361DC3FFFFFFFFFFFFFFFFFF8B
:1009F000FFFDFCFCFCFDFDFDFDFCFEFFFF7F9FA756
:100A0000B39D3D3EDEDEBEBDDDFB671FFFFFFFFF8A
:100A1000FFFFFF6F6FB7B76F6FB7FE5885E5E2E373
:100A2000F1FAFFFFFFFFFFFFFFF9F9F8F8F9F9F816
:100A3000F8FCFEFFFFFFFFFFFFFFFFFFFFFFFFEFE1
:100A4000DF3FFFFFFFFFFFFFFFFFFFFFFFFFFFFF96
:100A5000FFFFFFFFFF161F8BD0FFFFFFFFFFFFFF12
:100A6000FFFFFFFFFFFFFFFFFFFFFFFFFFFFFFFF96
:100A7000FFFFFFFFFFFFFFFFFFFFFFFFFFFFF81F6D
:100A80001F3F3F3F3F3F3F3F3F3F3F3F3F3F3F3F96
:100A90003F3F3F140EFF01FDFDFDFDFDEDF5B54DA2
:100AA000FDFDFDFDFDFD0107FC1F10372727272752
:100AB0002625252627272727272720203FFF01FD3A
:100AC000FDFDFDFDED75B5CDFDFDFDFDFDFD010758
:100AD000FC1F1037272727272425252527272727E9
:100AE000272720203FFF01FDFDFDFDFDFDED05FD5C
:100AF000FDFDFDFDFDFD0107FC1F10372727272702
:100B00002725242527272727272720203FFF01FDEA
:100B1000FD0DF5B52DFD0DF5F50DFD05FDFD0107EF
:100B2000FC1F10372726252526272625252627259D
:100B3000272720203FFFFFFFFFFFFFFFFFFFFFFFF3
:100B4000FFFFFFFFFFFFFFFFFFFFFFFFFFFFFFFFB5
:100B5000FFFFFFFFFFFFFFFFFFFFFFFFFFFFFFFFA5
:100B6000FFFFFFFFFFFFFFFFFFFFFFFFFFFFFFFF95
:100B7000FC1F1F3F3F3F3F3F3F3F3F3F3F3F3F3F08
:100B80003F3F3F3F3F3F3F3F3F3F3F3F3F3F3F3F75
:100B90003F3F3F3F3F3F3F3F3F3F3F3F3F3F3F3F65
:100BA0003F3F3F3F3F3F3F3F3F3F3F3F3F3C0EFFC9
:100BB00001FDFDFDFDFD0DF5B52DFD0DB5B50DFDE1
:100BC00005EDDDED05FD05B5B5F5FDFDFD0DF5F515
:100BD0000DFD05FDFDFD05FD05B5B5F5FD05B5B53D
:100BE0004DFDFDFDFDFDFDFD0107FC1F1037272715
:100BF0002727262525262724272724272427272794
:100C00002427242525252727272625252627272687
:100C10002526272724252525272427272427272776
:100C20002727272720203F00081CFEFEFCFCFEFE95
:100C3000FCC0C0C0800002070F0F070703030707AF
:100C40000707030060F0F0F0F0FEFFFFFF9E0000DA
:100C50000000060F1F0F0707070F1F0F0600007089
:100C6000F8F8F8F8F0F0F8F8FCFC38100000000094
:100C7000000F1F1F0F0F1F1F0E04000000187CFE27
:100C8000FCF8F8F8FCFEFC98000000001E3F3F3F17
:100C90001F0303030301000E0E000814EA0AF414F4
:100CA000FA82BC404040800002050A0A05050202A3
:100CB000050505040300609050D0504E719D619E63
:100CC00000000000060916090505050916090600B9
:100CD000007088A8A86850D028E814D42810000014
:100CE0000000000F10170A0B14150A04000000186A
:100CF000649A64A8A8A8E49A6498000000001E21E1
:100D00002E231C02020202010080C0C0C0FCFEFEB5
:100D1000FCFCFEFE1C080003070707070303070788
:100D20000F0F0702000000009EFFFFFFFEF0F0F033
:100D3000F060000000060F1F0F0707070F1F0F06C8
:100D400000001038FCFCF8F8F0F0F8F8F8F8700043
:100D5000040E1F1F0F0F1F1F0F000000000098FC44
:100D6000FEFCF8F8F8FCFE7C180000000103030309
:100D7000031F3F3F3F1E0000000E0E80404040BC5E
:100D800082FA14F40AEA14080003040505050202B5
:100D900005050A0A0502000000009E619D714E5083
:100DA000D0509060000000060916090505050916D7
:100DB000090600001028D414E828D05068A8A88894
:100DC0007000040A15140B0A17100F000000000031
:100DD00098649AE4A8A8A8649A6418000000010224
:100DE0000202021C232E211E000000030102010842
:100DF00008FF9F91FDFD9D91FF7F9F91EDF59D91D6
:100E0000FE03081F111F001F001D151711151F07D6
:100E1000041F17151D1F151D01011F1F151F171575
:100E20001F0D08E0FBE0FFE0FFF1EEE2FFE0FBE07A
:100E30001808E1FAE1FFFFFBFBFFFFE0EAEEFFE14C
:100E4000FAE1FFEDEAF6FFFCE3FCE0EAF5FFFFFB69
:100E5000FBFFFFE0FBE0FFE1FAE1FFE0FAE5FFE086
:100E6000EEF14230FFFFFFFFFFFFFFFFFFFFFFFF3D
:100E7000FFFFFFFFFFFFFFFFFFFFFFFFFFFFFF7F02
:100E80003F1F0F07070FFFFFFFFFFF3F0703C7FFCE
:100E9000FFFF1F0F070F1F3FFFFFFFFFFFFFFFFFBA
:100EA000FFFFFFFFFFFFFFFFFFFFFFFFFFFFFFFF52
:100EB0007F7F3F3F1F0F0707078FEFFF3F1F0F0386
:100EC00001000000000000FFFFFF7F0F010000F89D
:100ED000FFFF7F070000C0E0C08000033FFFFFFF6F
:100EE0000103070F1FFFFFFFFFFFFFFF7F3F0F8380
:100EF000C0F0F0F87C380080E0FC7F0F0380C0F881
:100F0000FCFEFF3E0000C0F8FFFF1F03C000000012
:100F1000FCFFFF3F000040FE7F3F1F0300E0FCFF9F
:100F2000FFFF000000E0FCFFFFFFFFFFFF0300806A
:100F30000407070341E0E0FCFFFF9F030080F8FF88
:100F4000FFFF7F3F010000F8FF3F0700F0FE7F003A
:100F500000F8FFFF1F00008000000018FCFEFFFFEC
:100F6000FFFF8780E0FCFFFFFFFFFFFFFFE7C08080
:100F7000C0FFFFF8F000000307FFFF81000000033F
:100F8000070F07030080C0F87F0F01000000010079
:100F90000000F0FF1F010080F0FFF000000001E3FF
:100FA000FFFFF7E3C1E3FFFFFFFFFFFFFFFFFFFFCF
:100FB000FFFFFFFFFFFFFFFEFCFCFFFFFFFFFCC08A
:100FC000808080C0F0F8FCFFC783C0E0FCFEFEFC20
:100FD000C080C0E0DF8FC0C0F0FFFFFFFFFEFCFE5F
:100FE000FFFFFFFFFFFFFFFFFFFFFFFFFFFFFFFF11
:100FF0002B20000000000000000040C0E0E0E0F016
:10100000F0F0F0F0F0F0E020E0C0D0F0F0376F1F2B
:101010007FFFFFFFFFFFFFFFFFFFFFFFFF0101015A
:10102000000000000000040E1F3F7FFEF2F0F0F20F
:10103000F0F1F0F0F0F2F7F7EFEFBE7E7E3E1E1E0D
:101040001D1D190B0BE79F7F808080C0C0C0C0E0D2
:10105000E0E02000000000000103030303010001A1
:101060000137337B7F7FBFBF9F5F2F171F8B083BED
:101070007781FC0707070703F3FF1F070000000045
:10108000000000000080E03886F1E0E89060E08039
:101090000007C130CCF0FEFFFFFFFEFFFFFF5C0842
:1010A000C0DDDDE3FFDEC0DFFFE3DDDDE3FFE3DD29
:1010B000DDEBFFC0F7EBDDFFDBC2DFFFC1FBFDC3F4
:1010C000FFB3ADADC1FFFFFFFFFDE0DDDFFFC0FB04
:1010D000FBC7FFE3D5D5D3FFDBC2DFFFC1FBFDFBC1
:1010E000FFFFFFFFE3D5D5D3FFC9F7F7C9FFDBC289
:1010F000DFFDE0DDDFFFDBD5D5EDFFDF4B08F7815E
:10110000F6FEFFC1FBFDFBFFE3DDDDE3FFC1FBFB03
:10111000C1FFFFFFFFFFE3D5D5D3FFDBD5D5EDFF43
:10112000E3DDDDEBFFEFD5D5C3FF81DDDDE3FFDBE5
:10113000C2DFFFC1FBFDC3FFB3ADADC1FFFFFFFFCA
:10114000C0DDDDE3FFB1AFAFC15008C0F6F6F9FF77
:10115000C1FBFDFBFFE3D5D5D3FFF1EFDFE1FFE3FB
:10116000D5D5D3FFC1FBFDC3FFFDE0DDDFFFFFFFF2
:10117000FFFDE0DDDFFFC0FBFBC7FFE3D5D5D3FFFD
:10118000FFFFFFFFDEC0DFFFDBC2DFFFE3DDDDE3EC
:10119000FFC1FBFDC3FFDBD5D5EDFF0A1001FEFE4D
:1011A00086EA86FEFE0103FFFEFCFCFCFCFCFCFC68
:1011B000FE0A1001FEF6E6C6E6F6FE0103FFFEFC9F
:1011C000FCFCFCFCFCFCFE00C0E0F0F8F8F8F8F8D1
:1011D000F8F0E0C000000000000000000080800087
:1011E000000000000F1F3F3F7FFFFFFFFFFFFFFFDB
:1011F000FFFEFEFEFEFEFEFEFFFFFF3F1E0C000098
:10120000004040C0C0F0FFFFFFFFFFFFFFFFFFFFF8
:10121000FFFFFFFFFFFFFFFEFC40400080C0E0F04B
:10122000F0F0F0F0F0E0C0800000000000000000EE
:1012300000000080000000001F3F7F7FFFFFFFFFD6
:10124000FFFFFFFFFEFEFEFEFEFEFEFEFCFEFF3F7A
:101250001F0E00004040C0C0C0F1FFFFFFFFFFFFB6
:10126000FFFEDCC9E1F1FFFFFFFFFFFEFC40400095
:1012700000C0E0F0F8F8F8F8F8F8F0E0C00000007E
:10128000000000000000000000000000071F3FFFFA
:10129000FFFFFFFFFFFFFFFFFFFFFEFEFCF8F8F080
:1012A000F0F8FCFCF8F00000404247CFC7CFFFFF4A
:1012B000FFFFFFFFFFFFFFFFFFFFFFFFFFFFFFFF3E
:1012C000FF7C400000000080800000000000000063
:1012D0000000C0E0F0F8F8F8F8F8F8F0E0C000001E
:1012E0000C1E3FFFFFFFFEFEFEFEFEFEFEFFFFFFA9
:1012F000FFFFFFFFFF7F3F3F1F0F004040FCFEFF4F
:10130000FFFFFFFFFFFFFFFFFFFFFFFFFFFFFFFFED
:10131000F0C0C0404000000000008000000000005D
:1013200000000000000080C0E0F0F0F0F0F0F0E01D
:10133000C08000000E1F3FFFFEFCFEFEFEFEFEFE14
:10134000FEFEFFFFFFFFFFFFFFFF7F7F3F1F00400D
:1013500040FCFEFFFFFFFFFFF1E1C9DCFEFFFFFFE6
:10136000FFFFFFFFF1C0C0C04040000000000000D0
:10137000000000000000000000C0E0F0F8F8F8F8FD
:10138000F8F8F0E0C0000000F0F8FCFCF8F0F0F82D
:10139000F8FCFEFEFFFFFFFFFFFFFFFFFFFFFF3F29
:1013A0001F0700407CFFFFFFFFFFFFFFFFFFFFFF66
:1013B000FFFFFFFFFFFFFFFFCFC7CF474240000007
:1013C00000000000000080C0E0F0F0F0F0F0F0F06D
:1013D000E0C08000000000000000000000000000ED
:1013E00000069FFFFFFFFFFFFFFFFFFFFFFF9F06BE
:1013F000000000000000000000000000000077FF77
:10140000FFFFFFFFFFFFFFFFFFFF7700000000006F
:101410000000000000000000000080C0E0F0F0F0DC
:10142000F0F0F0F0E0C080000000000000000000DC
:101430000000000000069FFFFFFFFFFFFFFFFFFF10
:10144000FFFF9F06000000000000000000000000F9
:10145000000077FFFFFFFFFFFFFFFFFFFFFF7700A9
:10146000000000000000001C1700C02050C8488881
:10147000C8C8081020C00000000000000000008064
:101480008000000000000916292D47830100C0C01C
:10149000F0FC7B7A7AFAFAFAFA1A17549A2D120C9F
:1014A00000000000000000300F300F310C08291B35
:1014B00028371F2D120C380801023C000000804024
:1014C000A09090109090102040800000000000003C
:1014D0000000000000800000000C132C525B8E07FF
:1014E00003018080E0F9F67A7AFAFAFAFAFA1456E9
:1014F000992E110E00000000000000310E00013195
:101500000D0B320C08000020100D0B363D023C0084
:10151000000000C06010C848C888C8081020C0007B
:10152000000000000000000000000000000205189C
:101530002AD35D47830100C0C0F0FC7B7A7AF4E8CF
:10154000E8D0D0B8A4D4689060000002050A050174
:10155000310E300F310C02211728371F2F170030A2
:10156000020C033C0000000000808000000000002E
:1015700000000000C0201008C8C88848C85020C01B
:1015800000000C122D9A54171AFAFAFAFA7A7A7B9A
:10159000FCF0C0C0000183472D2916090000003C63
:1015A000020108380C122D1F37281B29080C310F97
:1015B000300F30000000000000000000800000003C
:1015C000000000000000000080402010909010906B
:1015D00090A0408000000E112E995614FAFAFAFAE3
:1015E000FA7A7AF6F9E080800103078E5B522C13B9
:1015F0000C00003C023D360B0D10200000080C32A0
:101600000B0D3101000E3100000000000000000051
:101610000000000000000000000000C0201008C80A
:1016200088C848C81060C00000609068D4A4B8D0D2
:10163000D0E8E8F47A7A7BFCF0C0C0000183475D13
:10164000D32A180502003C030C023000172F1F3765
:10165000281721020C310F300E3101050A05020056
:10166000000000000000000080402010909090904A
:1016700090102040800000000000000000000000EA
:1016800000000006996083860F1A131A0F86836084
:1016900099060000000000000000000000000000AB
:1016A0003708373F032A2A2A033F3708370000004C
:1016B0000000000000000000000000008040A010BA
:1016C000101010101010A04080000000000000005A
:1016D0000000000000000006996081C0C0C0C0C0CA
:1016E000C0C08160990600000000000000000000FA
:1016F000000000003708373F032D122E113F370836
:10170000370000000000000000002070F8F8F0F042
:10171000F8F8F00068FCFEFEFFFFFFFFFEFEFC0095
:101720000000081C3F3F1F1F0F0F1F1F1EBFFFFFA2
:10173000FFFFFFFFFFC3800000000000000000006B
:101740000000000203030303030303030303030373
:10175000022070F8F8F0F0F8F8F0000068FCFEFEE7
:10176000FFFFFFFFFEFEFC0000081C3F3F1F1F0F96
:101770000F1F1F1E1EBFFFFFFFFFFFFFFFC38000E5
:10178000000000000000000000000002030303034B
:101790000303030303030303021812002050A828C5
:1017A000D050E808F00068946AEAD1F5E1A1C202DD
:1017B000FC00000008142B2817140B0A161512AD94
:1017C0006DA2559B8C40BC438000000000000000CF
:1017D0000000000000020100010100000000010102
:1017E0000001022050A828D050E808F000006894BA
:1017F0006AEAD1F5E1A1C202FC000008142B281707
:10180000140B0A16151212AD6DA2559B8C40BC43E9
:101810008000000000000000000000000002010045
:1018200001010000000001010001020000FCFEFEB9
:10183000FFFFFFFFFEFEFC6800F0F8F8F0F0F8F89C
:10184000702000000080C3FFFFFFFFFFFFFFBF1EEF
:101850001F1F0F0F1F1F3F3F1C080002030303033E
:10186000030303030303030302000000000000005E
:101870000000000000FCFEFEFFFFFFFFFEFEFC6814
:101880000000F0F8F8F0F0F8F87020000080C3FFD6
:10189000FFFFFFFFFFFFBF1E1E1F1F0F0F1F1F3F7A
:1018A0003F1C0802030303030303030303030303AF
:1018B000020000000000000000000018120000FC00
:1018C00002C2A1E1F5D1EA6A946800F008E850D0BC
:1018D00028A850200000008043BC408C9B55A26D7E
:1018E000AD1215160A0B1417282B1408000201005C
:1018F00001010000000001010001020000000000E1
:1019000000000000000000FC02C2A1E1F5D1EA6A7B
:1019100094680000F008E850D028A850200000800B
:1019200043BC408C9B55A26DAD121215160A0B14C8
:1019300017282B140802010001010000000001011A
:10194000000102000000000000000000000A100179
:10195000FEFE82AAD6FEFE0103FFFEFCFCFCFCFCA0
:10196000FCFCFE0A1001FEFEFEFEFEFEFE0103FF71
:10197000FEFCFCFCFCFCFCFCFE0A1001FEDECEC6FC
:10198000CEDEFE0103FFFEFCFCFCFCFCFCFCFE02C8
:1019900008D4D205077F7F3E1C08411FFE0105F1D8
:1019A000F1F111D1B1D111F1515151515151515167
:1019B0005151515151510000FF00007F7F09090F23
:1019C00006007F7F19396F46007F7F4949414100FA
:1019D000266F49497B3200266F49497B32FF000060
:1019E000FFFFFFFEFFFEFF0279CD95A5CD79011126
:1019F000111101F9F901010000FF00007F7F0909C1
:101A00000F06007F7F40404040007C7E0B0B7E7CB9
:101A100000070F78780F0700000000000000FF00AB
:101A2000001F3F3F33333333333E36363E363E3688
:101A30003E36363E36363E360000FF00003E7F41E1
:101A4000417F3E007F7F0E1C7F7F00000000000072
:101A50000000000000000000000000000000003F47
:101A600040504040407846414159594141414159D7
:101A700059414141414141414100007F0000010184
:101A80007F7F0101007C7E0B0B7E7C007F7F09093C
:101A90000F06007F7F49494141000000000000001F
:101AA000E402F0013F034801A403F6000000010135
:101AB0003F03F60000000101A403A000DC03F001D5
:101AC000A40348013F03A20000005501E402A20064
:101AD000000055013F03A000A40348012A02A20010
:101AE000000055012A02A200000055012A02A000B0
:101AF00000000C002A02E0010080080B0002020234
:101B00000000090400000102020000052400100189
:101B1000052401010104240206052406000107052D
:101B2000810310004009040100020A0000000705BB
:101B3000020240000007058302400000040309047C
:101B400012010002EF020140412336800001010230
:101B5000030141726475696E6F204C4C4300417201
:101B60006475696E6F204C656F6E6172646F000002
:101B7000661E11241FBECFEFDAE0DEBFCDBF14E03A
:101B8000A0E0B1E0E4E8F1E502C005900D92AE34CA
:101B9000B107D9F728E0AEE4B4E001C01D92A63F3A
:101BA000B207E1F71DE0C9EBDDE004C02197FE01BB
:101BB0000E94B328C83BD107C9F70E949D1E0C9410
:101BC000C0280C9400008091D40808959091F108E9
:101BD000982329F49091F008982381E009F480E09B
:101BE0000895E4E8F4E0A0E0B8E000800EBC8111C4
:101BF000012C1197A0FDFDCF0192B9F70DB4089506
:101C0000FC0180918304882311F13FB7F89482E0AE
:101C10008093E9002091F200822F90E018161906B7
:101C200014F481E090E0882339F0289844E640934A
:101C300082044091F1004083222339F02091F20088
:101C4000211103C02BE62093E8003FBF08958FEFDA
:101C50009FEF08952FB7F89483E08093E900909167
:101C6000E800892F807295FF04C09091F20080E413
:101C7000891B2FBF089580917A0481110DC082E0E5
:101C80008093760484E08093770410927904109214
:101C9000780481E080937A0486E794E00895CF93F6
:101CA000DF931F92CDB7DEB76983DC01ED91FC9124
:101CB0000280F381E02D41E050E0BE016F5F7F4F75
:101CC00009950F90DF91CF91089583E08093E9000B
:101CD0008091F200882319F08AE38093E800089548
:101CE0000E942A0E90E00895CF93DF931F92CDB704
:101CF000DEB7FC018485958597FD08C02FEF3FEF87
:101D0000358724870F90DF91CF910895CE010196FA
:101D10000E94000E019719F4898190E0F3CF8FEFB4
:101D20009FEFF0CF0F931F93CF93DF931F92CDB709
:101D3000DEB78C01FC018485958597FF0BC0CE0131
:101D400001960E94000E019771F4898190E0F801DC
:101D500095878487F801848595850F90DF91CF91D1
:101D60001F910F9108958FEF9FEFF1CFFC018485B4
:101D7000958597FD0BC09FB7F89482E08093E900AA
:101D80008091F2009FBF90E0019608959FB7F8946C
:101D900082E08093E9008091F2009FBF90E0089577
:101DA000409170045091710420916E0430916F0441
:101DB00042175307B4F49091E8009570E1F39091C5
:101DC000E80092FD19C08093F10080917004909119
:101DD000710401968F739927892B19F48EEF8093E4
:101DE000E8008091700490917104019690937104C1
:101DF0008093700481E0089580E00895EF92FF924F
:101E00000F931F93CF93DF93F82E192FE62E042FF5
:101E100081E0860F880F0E94D00E83E00E94D00ED2
:101E2000CF2DD12FEC0EFD2EF11CCE15DF05B9F014
:101E300007FF13C0FE0184910E94D00E182F80E08E
:101E40000E94D00E812321968111EFCFDF91CF9197
:101E50001F910F91FF90EF9008958881EDCF81E061
:101E6000F5CFDF92EF92FF920F931F93CF93DF9303
:101E7000D82E8A01EB017B01E40EF51ECE15DF059D
:101E800059F0D7FE12C0FE0184910E94D00E219617
:101E90008111F4CF0FEF1FEFC801DF91CF911F9198
:101EA0000F91FF90EF90DF9008958881EECF0F9310
:101EB0001F93CF93DF931F92CDB7DEB782E0898364
:101EC00042E450E06AEF7AE180E80E94310F0E941C
:101ED0003B0EDC0112960D911C910115110589F044
:101EE000D801ED91FC910280F381E02DBE016F5F7E
:101EF0007F4FC801099597FD04C0F8010085118541
:101F0000ECCF89810F90DF91CF911F910F910895B0
:101F1000615030F02091F100FC0120830196F8CF50
:101F2000289884E68093820408953FB7F8948091BE
:101F30005C0490915D04A0915E04B0915F0426B5AD
:101F4000A89B05C02F3F19F00196A11DB11D3FBFF1
:101F5000BA2FA92F982F8827BC01CD01620F711DC0
:101F6000811D911D42E0660F771F881F991F4A95BA
:101F7000D1F708958F929F92AF92BF92CF92DF9246
:101F8000EF92FF926B017C010E94950F4B015C0167
:101F9000C114D104E104F104B9F00E94950F68194D
:101FA00079098A099B09683E73408105910580F390
:101FB00021E0C21AD108E108F10888EE880E83E01A
:101FC000981EA11CB11CE4CFFF90EF90DF90CF9042
:101FD000BF90AF909F908F9008958F929F92AF92F5
:101FE000BF92CF92DF92EF92FF920F931F93CF9306
:101FF000DF936C017B018A0180915303882309F4EC
:102000005CC080918304882309F457C080917504D3
:1020100080FF05C08091E00082608093E000E801CD
:10202000B12C8AEFA82E93E0892E2AE3922E2097D6
:1020300011F4BB20D9F10E942A0E81110AC0AA9482
:10204000AA20D9F161E070E080E090E00E94BA0F30
:10205000EECF8C171D0611F00CF08C2F9FB7F89463
:102060008092E9002091E80025FD02C09FBFDFCFEC
:10207000282F30E0C21BD30BF701815020F0419193
:102080004093F100FACFE20EF31EBB2021F09092B4
:10209000E800B12CEBCF8091E80085FDE7CF90926E
:1020A000E800BB24B394209709F3F3CF5D9884E64E
:1020B00080937404101611063CF081E090E0F60164
:1020C0009383828310E000E0C801DF91CF911F91DC
:1020D0000F91FF90EF90DF90CF90BF90AF909F90C7
:1020E0008F9008956F927F928F929F92AF92BF923E
:1020F000CF92DF92EF92FF920F931F93CF93DF93D4
:102100004C01CB013A017C2DFA0164913196549136
:10211000F2E06F0E711CC62FD0E0211102C0EE203C
:1021200009F1E1E0F0E0352F377011F4F0E0E0E084
:10213000A52FA695A695A695AE0FBF2FB11DAC9F56
:10214000F001AD9FF00DBC9FF00D1124733009F02C
:102150008BC0EE0FFF1F2E9FD0012F9FB00D1124BB
:102160006A0E7B1ED401AC0FBD1F1A161B060CF0A5
:102170006CC020E8821691040CF067C09C01250F0A
:10218000311D121613060CF060C0803491050CF05E
:102190005CC06114710409F458C0382F3770FC0119
:1021A00097FD379623E0F595E7952A95E1F72E2FD1
:1021B00097FF04C0332311F02FEF2E0FEE27FF27D8
:1021C000E819F90997FC02C0F0E0E0E090E89819FE
:1021D000A038B1050CF4962F9E1BA22F022E000CE6
:1021E000BB0B4A2F40952F3F0CF040E0DD24D394E9
:1021F000852F877009F4D12C569556955695D50E96
:10220000AD0DB11D19971CF058E0D52ED21AD41A75
:10221000240F50E82503D0011124A80DB91DAE0FDD
:10222000BF1F649FE00DF11D11246E0E7F1EE32E73
:10223000032E000CFF08733009F423C108F5713038
:1022400009F4D6C0723009F484C0DF91CF911F9198
:102250000F91FF90EF90DF90CF90BF90AF909F9045
:102260008F907F906F9008950115110509F473CF39
:10227000EE9ED001EF9EB00D11240A0F1B1F6BCFF5
:102280007A3FB1F10D2D020F7B3FF9F62017E9F2ED
:10229000BD016C577B4FD12CC12CC91608F0A2C0D0
:1022A000F301EC0DFD1DE491F0E0AF010E2C02C036
:1022B000440F551F0A94E2F727FD06C0FB018081F9
:1022C000142F109581238083332361F0273054F439
:1022D0005B01F0E8AF0EB11C452F4095F501808100
:1022E00084238083FFEFCF1ADF0A6F5F7F4FD5CF44
:1022F0000D2D020F201709F4A8CFBD016C577B4F9D
:10230000D12CC12CC91608F067C0F301EC0DFD1DDE
:10231000E491F0E0AF010E2C02C0440F551F0A9467
:10232000E2F727FD04C0FB018081842B80833323E7
:1023300051F0273044F45B01F0E8AF0EB11CF50119
:102340008081852B8083FFEFCF1ADF0A6F5F7F4F7D
:10235000D9CF6FEF70E0032E02C0660F771F0A948B
:10236000E2F760957095972E8D2C820E281509F452
:102370006CCF8D010C571B4FD12CC12CC91630F5D9
:10238000F301EC0DFD1DE491F0E0AF010E2C02C055
:10239000440F551F0A94E2F727FD05C0F80180811C
:1023A0008623842B8083332359F027304CF4580143
:1023B000F0E8AF0EB11CF50180818921852B808367
:1023C000FFEFCF1ADF0A0F5F1F4FD8CF2F5F6C0EC2
:1023D0007D1EA058BF4FCACF2F5F6C0E7D1EA05828
:1023E000BF4F88CF2F5F6C0E7D1EA058BF4F4ECFC2
:1023F0000E0F1F1F8D2D820F281709F426CFBD0148
:102400006C577B4FD12CC12CC91698F5F801EC0DF7
:10241000FD1DA490B12C0E2C02C0AA0CBB1C0A946A
:10242000E2F7A094B094F301EC0DFD1D8490912C83
:102430000E2C02C0880C991C0A94E2F727FD08C0F4
:10244000FB014081E42FEA214E2F4829FB01408304
:10245000332349F027303CF4FB01E058FF4FA080C4
:10246000BA20B928B082FFEFCF1ADF0A6F5F7F4F23
:10247000CBCF2F5F6C0E7D1E0C0F1D1FA058BF4FC2
:10248000BBCFE92EF12CE60DF71DAC57BB4F60E832
:1024900070E06E197F09CE19DF09AE01440F551F98
:1024A000C1E0D0E07E01032E01C0EE0C0A94EAF7F1
:1024B000192F0D2D892E932ECF93DF93ED01EF96DB
:1024C000EF962296A590C590992059F0AE9C5001A8
:1024D000CE9C600127302CF4F880D094FD20FB289E
:1024E000F99222233AF0FC90C094FC20FA28FD9245
:1024F0000C947B1211961A9529F70A9551F0182D14
:1025000023951124E40FF11DA60FB11DC60FD11D97
:10251000D9CFDF91CF91112498CECF92EF920F9324
:102520001F9332E0C32EE12C10E000E00E947210F5
:102530001F910F91EF90CF900895CF92EF920F934C
:102540001F93F901202FCC24C3948F010E94721095
:102550001F910F91EF90CF900895BC0190E080E023
:102560000C94BA0F8FB18095807F669B88601C9B0E
:10257000846008951092D4083E983F9808953E9A3A
:102580003F9A81E08093D4080895E8E2F5E090E175
:10259000969FD001A0781124A80F6770E60FF11D57
:1025A0009491AC57BB4F442321F08C91982B9C9372
:1025B000089590958C919823FACF08952091530413
:1025C000E0915104F0915204CF010296909352048D
:1025D00080935104222319F085919491089580816C
:1025E00091810895E1E7F0E080818D7F808382E032
:1025F0008093910081E0809390004698109250045F
:102600000895CF92DF92EF92FF92CF930E94DE1255
:10261000811520E8920739F4CF91FF90EF90DF9079
:10262000CF900C94F21221E020935004813020E8E6
:10263000920751F480914E0490914F04909352046C
:10264000809351040E94DE129F77009709F075C0B5
:1026500081E08093560446988AEF90E09C0150E018
:1026600040E060E079E08DE390E00E941C28690181
:102670007A0181E0C81AD108E108F108C1E0C1146B
:10268000D10421E0E206F10454F0CD2CDE2CEF2C35
:10269000FF2481E0C81AD108E108F108C4E0E09104
:1026A000E308F091E4080995811103C081E080936B
:1026B00056040E94DE129C018FEF9FEFDC01211572
:1026C000310579F04FB7F8948091600490916104DE
:1026D000A0916204B09163044FBF820F931FA11DAC
:1026E000B11D8093570490935804A0935904B0935C
:1026F0005A04D0929700C0929600809194009091D5
:102700009500B0E0A0E0C816D906EA06FB0620F462
:10271000D0929500C0929400C061C093910080E176
:102720008093900080917100826080937100CF91BE
:10273000FF90EF90DF90CF900895109256048F3F56
:102740002FE7920709F08ACF81E08093550484EB4C
:1027500090E084CF9C01E1E7F0E090819D7F908341
:1027600081E08093530430935204209351043093BA
:102770004F0420934E040C9401139C01E1E7F0E018
:1027800090819D7F908310925304E5EDF8E0F093E3
:102790005204E0935104F0934F04E0934E043183CC
:1027A00020837383628380E090E8958384830C9414
:1027B0000113CF93C62F882349F020E043EC53E068
:1027C0006AE070E082E390E00E948D122C2F49E6CF
:1027D00052E060E270E090E080E0CF910C948D12C6
:1027E0008F929F92AF92BF92CF92DF92EF92FF9221
:1027F0000F931F93CF93DF9300D01F92CDB7DEB717
:102800007C01D62E20E04CE051E068E370E08FEFD1
:102810009FEF0E948D1220E04CEF50E068E370E0E3
:1028200082E790E00E948D122AE030E0C701B901F2
:102830000E948B288983CB01B9010E948B288A834F
:10284000C70164E670E00E948B28CB01B9010E94A9
:102850008B288B834E0184E0880E911CAA24A394BC
:10286000B12C9BEFC92EE12C10E000E0F401229185
:102870004F0141E05EE06AE370E0C5010E94721022
:10288000F4E0AF0EB11C8DE0A816B10451F71EE7BD
:10289000DD20B1F0A12EB12C8AE3E82EF12C17FD3A
:1028A00005C040E0B701C5010E94C512EFEFEE1A66
:1028B000FE0AFFE3EF16F10491F71250DA94E8CF25
:1028C0000F900F900F90DF91CF911F910F91FF907C
:1028D000EF90DF90CF90BF90AF909F908F90089532
:1028E00086EB90E00E94AA1387EF87BD88E0809373
:1028F00067048091450381508093450308958CEAD5
:1029000090E00E94AA1387EF87BD88E08093670458
:102910008091680490916904019690936904809372
:1029200068040895FC018085882381F1838594855E
:102930009230D9F048F49923A9F0913071F08F5F6B
:10294000873019F1838708959331E1F09431B1F024
:102950009231A9F79285915002C092859F5F92872C
:10296000863069F79185915007C092859150928782
:10297000863029F791859F5F9187E1CF92859F5F90
:102980009287DDCF92859F5FF2CF13860895FC0179
:102990008085811110C08681813019F0823031F03C
:1029A00008958781E80FF11D808108958781E80FE0
:1029B000F11D8381089581850895FC018085811131
:1029C00006C0878195E1899F802D11240895828515
:1029D00008958F929F92AF92BF92CF92DF92EF9223
:1029E0000F93CF93DF93EC015B016A018091EE08B6
:1029F0009091EF0887709927049798F48F819091B0
:102A00000802981305C09091070201E0963050F03B
:102A100090919201981305C001E0809191018F304F
:102A200008F400E0CE010E94DD14882E880F99087A
:102A3000CE010E94C71490E02885211111C0E02E1C
:102A40009601A501B4010E949D12DF91CF910F91D3
:102A5000EF90DF90CF90BF90AF909F908F900895B0
:102A60002C85213019F000E0233109F401E02E819A
:102A7000ECE0F0E0223011F0F0E0E0E0E12C2DE1BC
:102A800031E045E651E0B4018E0F9F1FDCCFFC0121
:102A9000EF58FF4F2081222309F456C0349620813D
:102AA000222319F0215020830895DC01AC58BF4F38
:102AB0002C91FC01E759FF4F3081323071F148F41D
:102AC0003323D1F03130F9F02F5F2730E1F12C932F
:102AD0000895333191F1343151F13231A9F7FC01CC
:102AE000ED58FF4F308131503083263069F73197F0
:102AF000808181508083E8CFFC01EE58FF4F9081A8
:102B000091509083E1CFFC01ED58FF4F30813F5F42
:102B100030832630C9F63197F2CFFC01ED58FF4FD4
:102B2000308131503083263079F6319703C0FC0173
:102B3000ED58FF4F90819F5FE4CFFC01ED58FF4FB0
:102B400030813F5FEFCF1C920895FC01E559FF4FA4
:102B50002081213081F030F02230D1F02330B1F4E7
:102B600086E00895FC01E759FF4FE081E80FF92F57
:102B7000F11D87AD0895FC01E759FF4FE081E80F93
:102B8000F92FF11DEC5AFF4F8081089580E00895E0
:102B900087E00895CF93DF9300D01F92CDB7DEB7C3
:102BA000209158033091590340915A0329833A8365
:102BB0004B83FC01EF58FF4F2081211132C0379722
:102BC000E081EC0FFD2FF11D2181FC01E559FF4F44
:102BD0003081323049F03330B1F0822F0F900F90B6
:102BE0000F90DF91CF910895DC01A159BF4FFC01F7
:102BF000E259FF4F9C918081981B892F99EF899F03
:102C0000200D1124EACFDC01A159BF4FFC01E2598C
:102C1000FF4F9C918081981BE7E09E9F200D11241F
:102C2000DCCF8D589F4FFC012081D7CFCF92DF9210
:102C3000EF920F93CF93DF93EC010E94A515082F1D
:102C4000CE010E94CA15682F880F770B6E0121E70D
:102C5000C20ED11CF6018081811149C03797808155
:102C60003197E0819E0145E1849F200D311D1124A3
:102C7000E20FF32FF11D8081E02E27EC31E147E6D2
:102C800054E1082E000C990B0E949D12F6018081E0
:102C9000882331F1FE01E759FF4F80818F7E82301A
:102CA000F9F48091EE089091EF088370992701E084
:102CB000029708F000E0CE010E94CA15682F880F25
:102CC000770B685E7F4FCE58DF4F8881E02E27EF6D
:102CD00031E04FE252E0082E000C990B0E949D1249
:102CE000DF91CF910F91EF90DF90CF900895FE018B
:102CF000EE58FF4FC0CFEF92FF920F931F93CF93E9
:102D0000DF93EC01E62EF42E8C010F581F4FF801D3
:102D10008081DE01AE58BF4F811127C03797808177
:102D20003197E0819E0145E1849F200D311D1124E2
:102D3000E20FF32FF11D80818C93CE010E94CA1502
:102D4000FE01ED58FF4F808331961082F801E0823A
:102D500080E0F11080E1CB58DF4F8883DF91CF9185
:102D60001F910F91FF90EF9008958C91E5CF81E036
:102D70000E94F10D40E054E06FEF70E084E894E0D1
:102D80000C94B9280F931F93CF93DF938C01EB0121
:102D90000E9406288883C80101960E94062889831C
:102DA000CE01DF91CF911F910F910895CF92DF92C5
:102DB000EF92FF926B017C01C114D104E104F10494
:102DC00041F00E94AE27A70196010E941C286B01CA
:102DD0007C01C701B601FF90EF90DF90CF9008957E
:102DE000CF93DF93EC01FC01E559FF4F608365E071
:102DF00070E080E090E00E94D616C359DF4F6A5F12
:102E00007F4F8F4F9F4F6883DF91CF9108951F931E
:102E1000CF93DF9384E08093EA0880931B011092A4
:102E20006404E1E0F1E011E0168317821086DAE035
:102E3000D487EEE0F1E0C2E0C683C7831086D48772
:102E4000D093070210920C0210920D0260E08EE9FE
:102E500091E00E94F0161092080210930E0218E002
:102E600010930B0240E060E08EE991E00E947B1637
:102E700010921302D0939101109296011092970133
:102E800061E088E291E00E94F016C0939201C09345
:102E900098011093950140E060E088E291E00E9483
:102EA0007B1610929D01DF91CF911F910895FC0137
:102EB000E259FF4F23E020833196208333974083EC
:102EC00032972081213021F466597F4FFB01208108
:102ED00062E0211101C063E00C94F016FF920F93A1
:102EE0001F93CF93DF93EC018B01F42EFC01E65985
:102EF000FF4F8081813019F158F08230B1F1C4590F
:102F0000DF4FF882DF91CF911F910F91FF900895CD
:102F100063E0CE010E94F016F801E659FF4F808170
:102F2000813059F010F0823051F783E0FE01E25910
:102F3000FF4F808331968083E2CF86E0F7CF83E036
:102F4000FE01E259FF4F808331968083FB01E659F1
:102F5000FF4F8081823020F0823089F662E001C02C
:102F600063E0CE010E94F016CACF62E0D2CFCF92CA
:102F7000DF92EF92FF920F931F93CF93DF93EC01B9
:102F80008B01DC01A559BF4F3C91313009F474C16C
:102F900068F1343000F5FC01E259FF4F20812150E7
:102FA0002083822F63E00E947F2891110AC031960E
:102FB000808183508083359780813330A9F08150A0
:102FC0008083211108C0FE01E159FF4F1082C459CE
:102FD000DF4F88818C93DF91CF911F910F91FF90EC
:102FE000EF90DF90CF9008958F5FEACF7C0129E6C4
:102FF000E20EF11CF701D080F9E0FD1508F438C1AC
:10300000ED2DF0E0EA5FF74E0C94B328EC18EC18C5
:10301000EC18E118D418A9185E1810181018101818
:1030200066E070E080E090E00E94D616F7015081E3
:10303000611571058105910511F5F801E759FF4FFB
:103040002081E52FE21BFF0B9F013497C4F0F801AC
:10305000E559FF4F4081413029F0263031057CF0A1
:1030600041110DC041E0B801CE01DF91CF911F9118
:103070000F91FF90EF90DF90CF900C946E17F801B6
:10308000E659FF4F2081213049F0319620812250AE
:10309000223020F0672B682B692B19F08FEF850FFA
:1030A00047C041E0B801CE01DF91CF911F910F9150
:1030B000FF90EF90DF90CF900C945717FC01E659EA
:1030C000FF4F9081809108019B0127593F4F690173
:1030D000981329C063E070E080E090E00E94D6166B
:1030E000F60120812A3058F0329620812250223079
:1030F00030F0611571058105910509F4B3CFF80130
:10310000E659FF4F2081213049F03196208122502D
:10311000223020F0672B682B692B19F2F701808190
:103120008150808358CFF9018081863018F085E086
:10313000F701F7CF87E0F701808361E0CE01DF91EF
:10314000CF911F910F91FF90EF90DF90CF900C9453
:10315000F016FC01E659FF4F908180910801981309
:10316000DDCF8091680490916904C29790F4F701D3
:1031700080818F5F808361E0CE010E94F016DF9135
:10318000CF911F910F91FF90EF90DF90CF900C9413
:103190007F1462E070E080E090E00E94D616672B1A
:1031A000682B692B21F3BACFFC01E659FF4F9081C0
:1031B00080910801981303C085E0F701DBCF83E01D
:1031C000B7CFC659DF4F988180910801891710F455
:1031D00082E0AECF81E0ACCF10921B01FC01E05940
:1031E000FF4F808180936404319680818111F3CEFA
:1031F00081E091E00E94C71480930A0181E091E090
:103200000E94DD1480930B0110920C0181E08093E9
:103210000901D0920D0181E091E00E94DD14182F88
:1032200081E091E00E94C714825F8093E6081E5FF0
:103230001093E7081092EA081092E80888E080935B
:10324000E90841E0FE01E659FF4F908180910801B5
:10325000981340E061E0CE010E947B16DF91CF9190
:103260001F910F91FF90EF90DF90CF900C9470140E
:10327000DA94F701D082AFCE7C01F9E6EF0EF11CB3
:10328000F701D080E5EFED0DEA3008F013C1F0E072
:10329000E45BF64E0C94B3285619561956198F193B
:1032A000F319121A1F1A2A1A2A1A2A1A66E070E04B
:1032B00080E090E00E94D616F701508161157105FB
:1032C00081059105C9F4F801E759FF4F2081E52FE9
:1032D000E21BFF0B9F012D3FFFEF3F076CF4F8014E
:1032E000E559FF4F4081442329F02B3F3F4F24F401
:1032F000413011F440E0B7CEF801E659FF4F20818C
:10330000213049F0319620812250223020F0672B65
:10331000682B692B11F081E0C2CE40E0C3CE63E0A0
:1033200070E080E090E00E94D61620916604F801DB
:10333000E759FF4F213099F52081FE01E659FF4FF3
:10334000408130911501431320C02B3060F4F80107
:10335000E559FF4F20812250223028F06115710578
:103360008105910539F2F801E659FF4F208121309E
:1033700049F0319620812250223020F0672B682BB3
:10338000692B59F2F701808104C0F70180812F3049
:1033900010F48F5FC6CE8150808360E0CFCE208155
:1033A0002B3068F4F801E559FF4F2081225022307C
:1033B00030F0611571058105910509F49BCFF80185
:1033C000E659FF4F2081213051F031962081225063
:1033D000223028F0672B682B692B09F49ECFF70168
:1033E00080818150D9CFFC01E659FF4F90818091B7
:1033F00015019813C7CF8091680490916904C29712
:1034000030F4F70180818150808360E0B5CE62E0C6
:1034100070E080E090E00E94D616672B682B692B45
:1034200081F3B0CFFC01E659FF4F908180911501E7
:10343000981303C08FE0F701E7CF81E179CEC65939
:10344000DF4F988180911501891710F482E170CEC9
:1034500083E16ECE11E010931B01FC01E059FF4F98
:10346000808180936404319680818111B4CD8EE097
:1034700091E00E94C714809317018EE091E00E94B2
:10348000DD14809318011092190110931601D09247
:103490001A018EE091E00E94DD14082F8EE091E089
:1034A0000E94C7148093E6080E5F0093E70810930C
:1034B000EA08C2CED394DDCEFF920F931F93CF9331
:1034C000DF93EC01F62E08811981C8010E940628BD
:1034D000F81621F06F2DC8010E940E28CE01DF9151
:1034E000CF911F910F91FF900895EF92FF920F934C
:1034F0001F93CF93DF9300D0CDB7DEB78C017B0154
:103500009A838983FB016081CE0101960E945C1A37
:103510000F5F1F4F1A830983F7016181CE01019666
:103520000E945C1AC7010F900F90DF91CF911F91FD
:103530000F91FF90EF9008950F931F93CF93DF9318
:1035400000D000D0CDB7DEB7182F8EEC90E00E94EF
:103550000628082F8FEC90E00E9406280C3421F4F6
:10356000843511F4112311F11C821B828EEC90E042
:103570009A8389836CE4CE0101960E945C1A8FECD9
:1035800090E09A83898364E5CE0101960E945C1ADB
:10359000BE016D5F7F4F80ED90E00E94751ABE0105
:1035A0006D5F7F4F82ED90E00E94751A0F900F9033
:1035B0000F900F90DF91CF911F910F9108951F925F
:1035C0000F920FB60F9211248F939F938091E10079
:1035D0009091E100937F9093E10083FF0FC01092E0
:1035E000E90091E09093EB001092EC0092E390934D
:1035F000ED001092830498E09093F00082FF22C0C7
:1036000093E09093E9009091F200992319F09AE3E6
:103610009093E80090917404992341F09091740480
:10362000915090937404911101C05D9A909182041D
:10363000992341F0909182049150909382049111CA
:1036400001C0289A84FF18C08091E2008E7E8160BC
:103650008093E2008091E1008F7E8093E100809171
:1036600075048E7E8061809375049F918F910F9079
:103670000FBE0F901F90189580FFF7CF8091E2004A
:103680008E7E80618093E2008091E1008E7E809347
:10369000E100809175048E7E8160E5CF1F920F92CC
:1036A0000FB60F921124CF92DF92EF92FF920F93F9
:1036B0001F932F933F934F935F936F937F938F93BA
:1036C0009F93AF93BF93EF93FF93CF93DF93CDB7C8
:1036D000DEB76C97DEBFCDBF1092E9008091E800A5
:1036E00083FF25C068E0CE0145960E94880F82EFD7
:1036F0008093E8008D8987FF39C09091E80090FFA2
:10370000FCCF982F907609F034C19E894F89588D4F
:103710002F89F88C911131C0803861F58091730444
:103720008093F1001092F1008EEF8093E8006C9688
:103730000FB6F894DEBF0FBECDBFDF91CF91FF91E2
:10374000EF91BF91AF919F918F917F916F915F9119
:103750004F913F912F911F910F91FF90EF90DF902C
:10376000CF900F900FBE0F901F9018959EEF9093E3
:10377000E800C7CF1092F100D5CF913059F48111F4
:10378000D3CF4130510581F6809173048D7F8093B2
:103790007304CACF933049F48111C6CF413051052B
:1037A00019F6809173048260F2CF953041F48091D4
:1037B000E80080FFFCCF20682093E300B5CF96306F
:1037C00009F0A9C00B8D1C8D22E01092E900109227
:1037D000710410927004F2122EC010926F041092B5
:1037E0006E040E94570F1F8299E09983FA8291E03C
:1037F0009E8390EA98879AEF998720917004309180
:103800007104275F3F4F3C832B838D831092E90027
:10381000109271041092700410936F0400936E0460
:1038200049E050E0BE016F5F7F4F80E00E94310FA2
:103830000E94570F79CF10936F0400936E040E947B
:103840003B0EDC0112960D911C910115110509F436
:1038500051C1D801ED91FC910480F581E02DBE01AC
:103860006B5E7F4FC8010995009709F03EC1F801D2
:1038700000851185EACFF3E0FF120EC08F898823FF
:1038800009F440C0823061F440E860E18EE59BE1DC
:103890000E94FE0E811148CF81E28093EB0047CF5A
:1038A000813029F440E86BE082E59BE1F1CF833081
:1038B00099F70E943B0EDC011296ED90FC908E0170
:1038C0000F5F1F4F6801E114F10479F0D701ED910A
:1038D000FC910680F781E02DB801C7010995080F1A
:1038E000111DF701E084F184EECFD8011C92F6019E
:1038F00001900020E9F73197BF016C197D0940E084
:10390000C601C6CF6CE37BE1FB01449150E080E847
:103910000E94310F09CF973009F4BECF983021F4BF
:1039200081E08093F10000CF993009F0FDCE8370E3
:1039300009F0B2CFE0E3F4E081E031E096E32191D9
:10394000222371F08093E9003093EB00DF0111979F
:103950002C912093EC009093ED008F5F873079F7E6
:103960008EE78093EA001092EA008F8980938304A7
:10397000DBCE8B8D9C8D1092E90010927104109219
:10398000700490936F0480936E04898D811192C0AE
:103990008E899D89913A49F4813209F07DCF47E0C3
:1039A00050E06CE473E080E0B3CF913209F074CF63
:1039B000833269F48F89988DB0E0A0E0809348034A
:1039C00090934903A0934A03B0934B03ADCE80324A
:1039D00069F48091E80082FFFCCF67E08CE493E01B
:1039E0000E94880F8BEF8093E8009ECE823209F010
:1039F0009BCE8F8980935303EEEFFFE785919491DF
:103A00008B3F9C4D51F1E0E0F8E080914C039091A8
:103A10004D03A0914E03B0914F03803B9440A1050C
:103A2000B105F1F48091530380FD1AC0EE3F8AE0A6
:103A3000F80789F587E797E7918380838091600095
:103A40008093720488E19BE00FB6F894A895809368
:103A500060000FBE9093600067CEEEEFFAE0D5CF26
:103A6000808191818737974709F05ECEA895809134
:103A70006000886180936000809172048093600090
:103A8000EE3F2AE0F20789F08091FE0A9091FF0A4A
:103A90009183808349CE808191818737980751F245
:103AA0009093FF0A8093FE0AC5CF1092FF0A1092EE
:103AB000FE0A3ACE0E943B0EDC0112960D911C913B
:103AC0000115110509F4E8CED801ED91FC910190A2
:103AD000F081E02DBE016B5E7F4FC8010995811119
:103AE00023CEF80100851185EBCF181619060CF4CA
:103AF0001BCED2CEF1E0FF12BECE60E47BE104CF5C
:103B00001F920F920FB60F9211242F933F938F9312
:103B10009F93AF93BF938091600490916104A091B3
:103B20006204B091630430915B0423E0230F2D37CE
:103B300058F50196A11DB11D20935B04809360048C
:103B400090936104A0936204B093630480915C0439
:103B500090915D04A0915E04B0915F040196A11D57
:103B6000B11D80935C0490935D04A0935E04B093B8
:103B70005F04BF91AF919F918F913F912F910F90D3
:103B80000FBE0F901F90189526E8230F0296A11DD7
:103B9000B11DD2CF1F920F920FB60F9211242F9307
:103BA0003F934F935F936F937F938F939F93AF93C5
:103BB000BF93EF93FF932FB7F89480916004909197
:103BC0006104A0916204B09163042FBF4091570437
:103BD000509158046091590470915A0484179507C4
:103BE000A607B70708F064C080915604811138C059
:103BF00080915504882309F456C0809196009091D5
:103C0000970088399A4338F480915404811103C095
:103C100081E080935404809154048823A1F0809122
:103C2000960090919700855B9F4F909397008093AB
:103C30009600809100018C306CF0809100018150E1
:103C4000809300010DC080919600909197008B5455
:103C50009109EBCF809100018B3099F41092000113
:103C6000FF91EF91BF91AF919F918F917F916F9154
:103C70005F914F913F912F910F900FBE0F901F902A
:103C80001895809100018A3011F48CE0D9CF809191
:103C900000018A302CF788B190E4892788B9809197
:103CA00000018F5FCDCF88B190E4892788B9D8CF44
:103CB00080915504882339F01092550410925404D1
:103CC00086EF809300010E940113CACFE4E8F8E078
:103CD0001382128288EE93E0A0E0B0E084839583A3
:103CE000A683B7838AE394E0918380838FEF9FEF6D
:103CF00095878487EBEEF8E01582168280E1878352
:103D00001482138211868CE494E09183808383EE85
:103D10009DE09093E4088093E30880E090E890931E
:103D2000E2088093E10846983E9A84E08093EA088E
:103D30008091D4088093E5080895CF93DF93CDB7A1
:103D4000DEB7C45DD1090FB6F894DEBF0FBECDBF9C
:103D5000789484B5826084BD84B5816084BD85B566
:103D6000826085BD85B5816085BD80916E00816072
:103D700080936E0010928100809181008260809318
:103D8000810080918100816080938100809180001A
:103D90008160809380008091910082608093910087
:103DA000809191008160809391008091900081606A
:103DB000809390008091C10084608093C1008091C5
:103DC000C10082608093C1008091C10081608093B6
:103DD000C1008091C30081608093C3008091C000C6
:103DE00082608093C0008091C20081608093C20095
:103DF00080917A00846080937A0080917A0082605A
:103E000080937A0080917A00816080937A0080911B
:103E10007A00806880937A00109283041092730471
:103E2000109275048091D70081608093D70080EA5A
:103E30008093D80089B5806189BD89B5826089BDCC
:103E400009B400FEFDCF61E070E080E090E00E94E8
:103E5000BA0F8091D8008F7C80618093D8008091C8
:103E6000E000807F8093E0008091E1008E7E80936F
:103E7000E1008DE08093E200559A209A81EC8093D6
:103E80007C0085B1806F85B984B1877E84B984B1A7
:103E9000876E84B95E9A5F988AB1806D8AB9769A86
:103EA0006E9881B3806F81BB899880B38D7080BB21
:103EB00080E58CBD81E08DBD85E090E00E94AD1273
:103EC0005F9A85E090E00E94AD125E985C98E0E316
:103ED000F5E08DE395E024912EBD00000DB407FEC2
:103EE000FDCF31968E179F07B1F75C9A81E88093DA
:103EF0006400809165008160809365000E94B21229
:103F000002E010E087FF15C05C9885EA8EBD0000D6
:103F10000DB407FEFDCF5C9A2E982F982D988091B6
:103F2000640080628093640081E083BF889513BE43
:103F3000FCCF0E94B21282FF3EC02D980E94B212A6
:103F400084788438B9F42D9A88EC90E00E94AD1200
:103F50002F981A8309836FEFCE0101960E945C1A95
:103F600084EF91E00E94AD122F9A0E94B2128478E1
:103F70008438D9F30E94B21284718431B9F42D9A35
:103F800088EC90E00E94AD122E981A83098360E0BD
:103F9000CE0101960E945C1A84EF91E00E94AD125E
:103FA0002E9A0E94B21284718431D9F388EC90E089
:103FB0000E94AD12BECF2D9A82E090E00E940628AA
:103FC000882309F468C00E94BF12809164008E7F2C
:103FD0008093640080917A00806480937A0080915D
:103FE0007A0086FDFCCF00917800109179000E9444
:103FF000950FAB01BC01C801B0E0A0E0DC0199273E
:1040000088278C019D01040F151F261F371FC9012A
:10401000B801611571058105910511F00E94FD2718
:104020008091640081608093640089E18093F2084C
:1040300083E884BD8FEF87BD81EF8093800010926D
:10404000880010928A0080E00E949C1A63E0662E2D
:10405000712C7AE0A72EB12C8FB7F89440916004B0
:104060005091610460916204709163048FBF8091EC
:10407000F308142F181B812F1091F408112371F0ED
:104080008093F5081092F40880E090E0892B21F3EA
:104090000E940000DBCF0E94BA1297CF9091F208E5
:1040A000891740F48F5F891778F781E083BF88957F
:1040B00013BEEACF81E08093F4084093F308809127
:1040C000EE089091EF0801969093EF088093EE0828
:1040D0008091F0088093F1080E94B2128093F0085A
:1040E000E0916D04E83080F6F0E0E758FF4D0C9465
:1040F000B32881208B207B229C2217212021482558
:10410000602590E19093F2081092470310924603C5
:1041100091E090936D049091F1089095892329F195
:1041200080914603909147031816190634F480E2F3
:1041300090E09093470380934603809146039091CB
:104140004703892B91F46DE270E08EE690E00E94C7
:10415000BD136DE270E08CE290E00E94BD1381E03F
:1041600090E090934703809346038091460390919B
:1041700047031816190654F4019690934703809349
:104180004603819719F482E080936D0420E04AE9A8
:1041900059E161E170E080E290E00E948D1280912F
:1041A000EE089091EF0860E670E00E948B2888345A
:1041B00088F48033C0F58831E0F420E043E959E128
:1041C00069E170E08BE590E00E948D1280E00E9432
:1041D000F10D5ACF803688F720E04FE859E16CE1C5
:1041E00070E08DE290E00E948D1241E060E270E0AC
:1041F00015C020E04FE859E16CE170E08DE290E0FD
:104200000E948D1220E043E959E169E170E08BE5FD
:1042100090E00E948D1241E06EE170E084E390E056
:104220000E94C512D3CF41E06FE170E0F7CF10924A
:104230006704109247031092460385E080936D0453
:1042400085E3EBE5F3E0DE01A056BF4F01900D9250
:104250008A95E1F785E3E0E9F3E0DE01A559BF4F78
:1042600001900D928A95E1F785E3E5ECF3E0DE013C
:10427000D69601900D928A95E1F785E3EAEFF3E097
:10428000DE01119601900D928A95E1F788E00E9477
:10429000E60D811105C084E00E94E60D882319F027
:1042A00086E080936D04809167048F5F8B3E09F4F4
:1042B000FDC0809367048091EE089091EF088770AD
:1042C0009927892B69F480914603909147030196C1
:1042D0008533910509F4EDC090934703809346031D
:1042E0004090460350904703C2014A9665E370E050
:1042F0000E949F284C01382EE1E0F0E0EC0FFD1FFA
:10430000E40DF51D008120E049E759E1013011F489
:1043100043E659E161E070E083E090E00E948D1295
:104320009924E1E0F0E0EC0FFD1FE80DF91D10818C
:1043300020E04DE459E1113011F443E659E161E028
:1043400070E083E790E00E948D1281E0033009F075
:1043500080E0E6E3F0E0EC0FFD1FE40DF51D608169
:1043600070E0E82E082F2BE238E14BEB58E182E0B9
:1043700090E00E949D1201E0133009F000E0E6E3B6
:10438000F0E0EC0FFD1FE80DF91D608170E0E02EFC
:1043900029E037E149E957E186E690E00E949D1265
:1043A000EBE6F0E0EC0FFD1FE40DF51D808180933E
:1043B000070261E02BE1421651040CF060E08EE947
:1043C00091E00E94F016EBE6F0E0EC0FFD1FE80D27
:1043D000F91D8081809391013AE161E0331508F481
:1043E00060E088E291E00E94F0168EE991E00E9480
:1043F000A5154090460350904703E0EAF0E0EC0F2B
:10440000FD1FE40DF51DE081F0E0E82E082F27ECFC
:1044100031E147E654E163E070E0CF0101960E948C
:104420009D1288E291E00E94A515E0EAF0E0EC0F11
:10443000FD1FE80DF91DE081F0E0E82E082F27ECC4
:1044400031E147E654E16BE170E0CF0101960E9453
:104450009D12E1E0F0E0EC0FFD1FE40DF51D808101
:1044600020E041EB51E1823011F443E659E165E38C
:1044700070E083E090E00E948D1220E04BE951E172
:10448000123011F443E659E165E370E083E790E010
:104490000E948D1280916704803A80F48A3518F565
:1044A0008F508C33B0F00E94B716EECD1092670497
:1044B00002CF109247031092460312CF8F5A8C33CB
:1044C00090F720E04EE950E167E370E082E190E090
:1044D00007C020E049E451E167E370E087E190E044
:1044E0000E948D12E0CF20E04CEF50E167E370E0D6
:1044F00089E190E0F5CF83E080936D042FEF3FEFEB
:10450000309347032093460310926C048093450335
:1045100010926B0480E18093F20810926A0480EAA2
:104520009AE10E94AA13E5E1F2E081E884833696DD
:1045300093E0E134F907D1F7809146039091470366
:1045400097FD05C0019690934703809346038091A1
:104550006A04882319F0815080936A0480916C0466
:104560008F5F863A09F4E7C080936C0420E040EF47
:104570005FE070E060E090E080E00E948D1288E0F3
:104580000E94E60D8111DAC084E00E94E60D8823C6
:1045900089F181E0809366048091460390914703FE
:1045A000019609F0CDC00E94F212109247031092BA
:1045B000460384EB90E090931D0180931C0121E061
:1045C00030E030931F0120931E0129EC30E030933E
:1045D00021012093200190932301809322018CE2FA
:1045E00090E0909325018093240181E0809326013F
:1045F0001092270180E80E94E60D811105C080E13C
:104600000E94E60D8823B1F08091D408882309F434
:104610009BC00E94BA126091D40882E090E09A8315
:104620008983CE0101960E945C1A1093E50880E10F
:1046300080936A040E94B21285FD94C010926504B2
:1046400010928A001092880000914603109147034F
:104650000B30110509F4F7C00CF09EC00A301105AB
:104660000CF0B4C017FFADC060E00F3F1F4F09F45E
:10467000E8C0809146039091470397FF0BC080915B
:104680006C048F3038F0853508F4FEC084568234CF
:1046900008F40DC180916A04882361F02091E50837
:1046A00081E028274FEE5DE067E370E087E790E068
:1046B0000E948D1295E1892E92E0992E2401D2015B
:1046C00014968C91149718167CF412966D917C9127
:1046D00013978D919C91E12C00E02BEE3DE04CEE88
:1046E0005DE001960E949D12B6E04B0E511CE1E484
:1046F000F3E0E415F50519F72091EE083091EF0885
:10470000C901B3010E948B28A90141705527D4012A
:1047100014962C91149722383CF02F3F09F00CF49A
:1047200045C129370CF446C1F6E08F0E911C4814A0
:10473000590469F7B8CE10926C0418CF80E02ACFE4
:1047400084E080936D0456CF0E94BF126091D4081C
:1047500082E090E09A838983CE0101960E945C1AE0
:1047600011E063CF0E94B21286FF68CF809165048A
:104770008F5F809365048093880080916504803802
:1047800009F062CF81E00E949C1A809165048093B9
:104790008A001092650458CF0338110534F40937A4
:1047A00011050CF46BC061E00DC00338110509F070
:1047B00060CF60E081E00E94D91384E080936D04B3
:1047C00058CF60E080E00E94D91353CFE3E2F0E0DD
:1047D000F0934203E0934103F0934403E0934303D7
:1047E00005E112E06EE070E080E090E00E94D616F5
:1047F000645E7F4FD8016D937C936EE070E080E043
:1048000090E00E94D616645E7F4FF8017383628346
:104810006FE170E080E090E00E94D6166095D801CC
:1048200014966C9369E070E080E090E00E94D616E8
:10483000F80165830A5F1F4FF3E001341F0791F60B
:1048400061E081E0C0CF6EEE72E08FEF9FE70E94E3
:10485000BD1361E080E00E94D913809146039091DE
:104860004703B3010E949F28BC016B5F7F4F20E08C
:1048700042E65EE0C3960E948D12FBCE61E080E0CE
:104880000E94D913C801EDCF20E040E35EE066E36B
:1048900070E08BE390E00E948D1221E040E35EE047
:1048A00066E370E088E590E00E948D12F3CE20E090
:1048B00041E25EE066E370E080E490E00E948D12E9
:1048C0001A821982BE016F5F7F4F80ED90E00E94D7
:1048D000C21629813A81C901B5010E948B288983BA
:1048E000CB01B5010E948B288A83C90164E670E080
:1048F0000E948B28CB01B5010E948B288B831E015F
:1049000004E0200E311C210151E5852E912C4BEF46
:10491000C42EE12C10E000E0D2012E912D0141E0E7
:104920005EE066E370E0C4010E947210B4E08B0E9A
:10493000911CEDE58E16910451F71FAA1EAABE0127
:104940006A5C7F4F82ED90E00E94C2162EA93FA9BB
:10495000C901B5010E948B288983CB01B5010E9452
:104960008B288A83C90164E670E00E948B28CB0102
:10497000B5010E948B288B8330E6832E912C2BEF80
:10498000C22EE12C10E000E0D1012E911D0141E08A
:104990005EE066E370E0C4010E947210B4E08B0E2A
:1049A000911CECE68E16910451F774CE2F5FF40142
:1049B0002483BACE2F5F14962C9314971596EC91FE
:1049C0001597E93008F0B0CEF0E0E451FB4D2D91A1
:1049D0003C9111970C94B328F52401251025182536
:1049E000382522252D2535253E252E5F3F4FF40104
:1049F0003183208322813381225031093383228302
:104A000093CE4115510571F4D40112966D917C91AC
:104A100013976250710913967C936E93129702C09C
:104A2000009791F32E5F3F4FF401318320837CCEBA
:104A300041155105B9F712966D917C91139761500C
:104A40007109E9CF4115510599F4F401628173812F
:104A50006F5F7F4F738362830BC0009749F4F4014B
:104A6000628173816E5F7F4FF5CF41155105B9F3B8
:104A70002E5F3F4FD4012D933C9356CE2E5F3F4F78
:104A8000F40131832083228133812E5F3F4FB6CFE3
:104A900089E18093F2080E94071784E18093F2086D
:104AA00087E080936D0482E3809314020FE910E0A5
:104AB0001093470300934603109269041092680410
:104AC0001091F1080091F0088091460390914703FE
:104AD000181619062CF40197909347038093460308
:104AE00080916704882349F0815080936704811185
:104AF00004C010928A008FEF87BD8091EE0883700A
:104B000009F18091E9088823E9F09091E608209165
:104B1000EA08213009F0AAC12EEF920F9093E6081F
:104B200080FD05C09091E7089F5F9093E708815052
:104B30008093E9088091E8088F5F843009F498C178
:104B40008093E80850900F02552039F08EE991E0EB
:104B50000E94CA15885D8D3870F4509099015520D7
:104B600051F088E291E00E94CA15885D5524539463
:104B70008D3808F4512C8091450381110DC05520CA
:104B800059F080911B01843039F00E94B21283FFEA
:104B900003C082E080936D048090460390904703A9
:104BA0008114910451F580911B01843031F51095E9
:104BB000012303FF07C080911501823019F08F5F38
:104BC0008093150102FF07C080911501882319F019
:104BD00081508093150107FF07C080910801882349
:104BE00019F081508093080104FF07C080910801EB
:104BF000823019F08F5F8093080180916B048111DE
:104C000008C08EE991E00E94471588E291E00E9479
:104C10004715892891F580911B01843021F08091FE
:104C20006404813089F460910B0270E08091EE0899
:104C30009091EF080E948B28892B31F468E271E093
:104C40008EE991E00E94B71780911B01843021F01A
:104C500080916404823089F46091950170E08091C4
:104C6000EE089091EF080E948B28892B31F46EE9B1
:104C700071E088E291E00E94B71720E04FEC59E024
:104C800070E060E090E080E00E948D1220E043E35D
:104C900059E070E060E08AE690E00E948D1220E02A
:104CA00049ED56E070E060E08BE190E00E948D12EB
:104CB00010916604111116C0E12C00E027E835E0E0
:104CC0004FE256E070E060E08BE590E00E949D12BC
:104CD0002DE335E041E655E06EE170E080E790E0DD
:104CE0000E949D128EE991E00E94161688E291E0E2
:104CF0000E94161680916B04811108C081E091E03A
:104D00000E9492148EE091E00E9492144BE258E1CE
:104D10006BEB78E181E091E00E94E914113041F4FD
:104D200049E057E169E977E18EE091E00E94E914FA
:104D30008091090181110CC080911601811108C078
:104D40006091450380916804909169040E94F0137A
:104D50008091EA0881110FC00091E8086091E7088E
:104D600070E08091E608E02E29E03DE049E75DE053
:104D700090E00E949D128091EA08813079F40091C0
:104D8000E8086091E70870E08091E608E02E27E2ED
:104D90003CE047E95CE090E00E949D125520D9F18B
:104DA00080911B018430B9F180914503811166C067
:104DB000E12C00E025E33BE04DEA5BE068E170E0D8
:104DC00082E290E00E949D1281E080936B048090CB
:104DD0006804909069041FAA1EAA11114CC000ED2E
:104DE00010E0BE016A5C7F4FC8010E94C2168EA906
:104DF0009FA98815990538F41A830983682DCE0177
:104E000001960E945C1A609145038091680490911C
:104E100069040E94F0138091460390914703803506
:104E20009105ACF58D3291050CF048C0059703E073
:104E30008397C0F1609168047091690483E076956E
:104E400067958A95E1F720911402CB01889628177F
:104E5000190609F428CB685D6093140270E088EEAF
:104E600093E00E949F286093F2081DCB22E055CE6C
:104E70001092E80867CE02ED10E0B3CF0E9407174A
:104E80002FE930E03093470320934603C4CF8535A4
:104E9000910584F2883791059CF08D57910900E0C7
:104EA000839740F6E12C2BE63AE043E95AE068E1CB
:104EB00070E087E390E00E949D12BCCF02E0F2CF49
:104EC00001E0F0CF8F929F92AF92BF92CF92DF928C
:104ED000EF92FF92CF93DF93EC01688179818A8111
:104EE0009B81611571058105910521F464E279EDDD
:104EF0008BE597E02DE133EF41E050E00E941C2864
:104F000049015A019B01AC01A7EAB1E40E943B2888
:104F10006B017C01ACEEB4EFA50194010E9449281D
:104F2000C60ED71EE81EF91EF7FE06C081E0C81A9D
:104F3000D108E10880E8F80AC882D982EA82FB82B7
:104F4000C701B6019F77DF91CF91FF90EF90DF907F
:104F5000CF90BF90AF909F908F9008958F929F9227
:104F6000AF92BF92CF92DF92EF92FF926091540383
:104F70007091550380915603909157036115710507
:104F80008105910521F464E279ED8BE597E02DE14F
:104F900033EF41E050E00E941C2849015A019B0177
:104FA000AC01A7EAB1E40E943B286B017C01ACEEA6
:104FB000B4EFA50194010E944928C60ED71EE81E31
:104FC000F91EF7FE06C081E0C81AD108E10880E8A2
:104FD000F80AC0925403D0925503E0925603F0921F
:104FE0005703C701B6019F77FF90EF90DF90CF90F6
:104FF000BF90AF909F908F900895609354037093EB
:10500000550380935603909357030895F999FECF63
:1050100092BD81BDF89A992780B50895262FF999F8
:10502000FECF1FBA92BD81BD20BD0FB6F894FA9A8B
:10503000F99A0FBE01960895052E97FB1EF4009471
:105040000E94332857FD07D00E944E2807FC03D04A
:105050004EF40C94332850954095309521953F4F50
:105060004F4F5F4F089590958095709561957F4F54
:105070008F4F9F4F08950E947028A59F900DB49F59
:10508000900DA49F800D911D11240895B7FF0C94DD
:105090003B280E943B28821B930B0895A1E21A2E05
:1050A000AA1BBB1BFD010DC0AA1FBB1FEE1FFF1FCC
:1050B000A217B307E407F50720F0A21BB30BE40B1C
:1050C000F50B661F771F881F991F1A9469F7609563
:1050D0007095809590959B01AC01BD01CF0108951D
:1050E000A29FB001B39FC001A39F700D811D112429
:1050F000911DB29F700D811D1124911D0895991B62
:1051000079E004C0991F961708F0961B881F7A95BE
:10511000C9F780950895AA1BBB1B51E107C0AA1FC0
:10512000BB1FA617B70710F0A61BB70B881F991F48
:105130005A95A9F780959095BC01CD01089597FBEC
:10514000072E16F4009407D077FD09D00E948B2813
:1051500007FC05D03EF4909581959F4F089570957A
:1051600061957F4F0895EE0FFF1F0590F491E02D9C
:105170000994DC0101C06D9341505040E0F708955F
:04518000F894FFCFD1
:10518400F60D09055B5F630000000000000A0D09CD
:10519400055B5F630000000000000A04B400010026
:1051A400C900B4002C0001000C0C0C2426282A2C65
:1051B4002E3034383A3C3E40425A5A5A5A0808086B
:1051C4001E2124272A2D3034383B3E4344474A5E6F
:1051D4005E5E040404141A2024282C3034383C4025
:1051E40044484C506161610206070202020001005A
:1051F40001000100010001000000000000000000A7
:105204000403040304030403040304050505070657
:10521400050A0000000800000000000000000C0C5B
:105224000C2426282A2C2E3034383A3C3E40425A4C
:105234005A5A5A0808081E2124272A2D3034383B8C
:105244003E4344474A5E5E5E040404141A20242844
:105254002C3034383C4044484C50616161020607AC
:10526400020202000100010001000100010000002F
:105274000000000000000403040304030403040307
:10528400040505050706050A0000000800000000E3
:1052940000000000320000000081000000000081D6
:1052A40000000000008100000000008100000000F8
:1052B4000081000000000081000000000081000067
:1052C4000000008100000000008100000000008157
:1052D40000000000008100000000008100000000C8
:1052E4000081000000000081000000000081000037
:1052F4000000008100000000008100000000008127
:105304000000000000810000000000810000000097
:105314000081000000000081000000000081000006
:1053240000000081000000000081000000000081F6
:105334000000000000810000000000810000000067
:1053440000810000000000810000000000810000D6
:1053540000000081000000000081000000000081C6
:105364000000000000810000000000810000000037
:1053740000810000000000810000000000810000A6
:105384000000008100000000008100000000008196
:105394000000000000810000000000810000000007
:1053A4000081000000000081000000000081000076
:1053B4000000008100000000008100000000008166
:1053C4000000000000030A00FFFFFFFF00E10000EF
:1053D4000000000001000000FC10251A1C1E202201
:1053E4002426282A2C2E30323436383A3C3E404289
:1053F400444648484848464442403E3C3A3836349D
:1054040032302E2C2A28262422201E1C1A1A1A1A5C
:105414000809080908090809080908090809080900
:10542400080908090809080F0F0F0F0B0C0B0C0BC8
:105434000C0B0C0B0C0B0C0B0C0B0C0B0C0B0C0BB0
:105444000C030303030C0C1111111616161B1B1B62
:105454002020202020202020202020202020202048
:105464002020201B1B1B1616161111110C0C0C0CE2
:105474000C0C0C0C0C0C0C0C0C0C000002000002AC
:105484000000020000000000000000000000000313
:1054940000030003000300000100000100000100FC
:1054A40000010000000003000300030003000200E9
:1054B400C18081000000000000004F0EED0F700E4F
:0E54C400650EB60E740E920E00000000DD1292
:00000001FF
